{
  "_format": "hh-sol-artifact-1",
  "contractName": "Auction",
  "sourceName": "contracts/Auction.sol",
  "abi": [
    {
      "inputs": [
        {
          "internalType": "address",
          "name": "auctionNFTAddress",
          "type": "address"
        }
      ],
      "stateMutability": "nonpayable",
      "type": "constructor"
    },
    {
      "inputs": [
        {
          "internalType": "address",
          "name": "owner",
          "type": "address"
        }
      ],
      "name": "OwnableInvalidOwner",
      "type": "error"
    },
    {
      "inputs": [
        {
          "internalType": "address",
          "name": "account",
          "type": "address"
        }
      ],
      "name": "OwnableUnauthorizedAccount",
      "type": "error"
    },
    {
      "anonymous": false,
      "inputs": [
        {
          "indexed": true,
          "internalType": "address",
          "name": "previousOwner",
          "type": "address"
        },
        {
          "indexed": true,
          "internalType": "address",
          "name": "newOwner",
          "type": "address"
        }
      ],
      "name": "OwnershipTransferred",
      "type": "event"
    },
    {
      "inputs": [],
      "name": "auctionNFT",
      "outputs": [
        {
          "internalType": "contract AuctionNFT",
          "name": "",
          "type": "address"
        }
      ],
      "stateMutability": "view",
      "type": "function"
    },
    {
      "inputs": [
        {
          "internalType": "uint256",
          "name": "",
          "type": "uint256"
        }
      ],
      "name": "auctions",
      "outputs": [
        {
          "internalType": "uint256",
          "name": "recordId",
          "type": "uint256"
        },
        {
          "internalType": "uint256",
          "name": "lowestPrice",
          "type": "uint256"
        },
        {
          "internalType": "uint256",
          "name": "bidIncrement",
          "type": "uint256"
        },
        {
          "internalType": "uint256",
          "name": "startTimestamp",
          "type": "uint256"
        },
        {
          "internalType": "uint256",
          "name": "endTimestamp",
          "type": "uint256"
        },
        {
          "internalType": "enum Auction.State",
          "name": "state",
          "type": "uint8"
        },
        {
          "internalType": "uint256",
          "name": "highestBid",
          "type": "uint256"
        },
        {
          "internalType": "address",
          "name": "highestBidder",
          "type": "address"
        }
      ],
      "stateMutability": "view",
      "type": "function"
    },
    {
      "inputs": [
        {
          "internalType": "uint256",
          "name": "",
          "type": "uint256"
        },
        {
          "internalType": "uint256",
          "name": "",
          "type": "uint256"
        }
      ],
      "name": "bidsHistory",
      "outputs": [
        {
          "internalType": "address",
          "name": "bidder",
          "type": "address"
        },
        {
          "internalType": "uint256",
          "name": "amount",
          "type": "uint256"
        },
        {
          "internalType": "uint256",
          "name": "timestamp",
          "type": "uint256"
        }
      ],
      "stateMutability": "view",
      "type": "function"
    },
    {
      "inputs": [
        {
          "internalType": "uint256",
          "name": "tokenId",
          "type": "uint256"
        }
      ],
      "name": "endAuction",
      "outputs": [],
      "stateMutability": "nonpayable",
      "type": "function"
    },
    {
      "inputs": [
        {
          "internalType": "uint256",
          "name": "itemId",
          "type": "uint256"
        }
      ],
      "name": "getAuctionRecord",
      "outputs": [
        {
          "components": [
            {
              "internalType": "uint256",
              "name": "recordId",
              "type": "uint256"
            },
            {
              "internalType": "uint256",
              "name": "lowestPrice",
              "type": "uint256"
            },
            {
              "internalType": "uint256",
              "name": "bidIncrement",
              "type": "uint256"
            },
            {
              "internalType": "uint256",
              "name": "startTimestamp",
              "type": "uint256"
            },
            {
              "internalType": "uint256",
              "name": "endTimestamp",
              "type": "uint256"
            },
            {
              "internalType": "enum Auction.State",
              "name": "state",
              "type": "uint8"
            },
            {
              "internalType": "uint256",
              "name": "highestBid",
              "type": "uint256"
            },
            {
              "internalType": "address",
              "name": "highestBidder",
              "type": "address"
            }
          ],
          "internalType": "struct Auction.AuctionRecord",
          "name": "",
          "type": "tuple"
        }
      ],
      "stateMutability": "view",
      "type": "function"
    },
    {
      "inputs": [],
      "name": "getBalance",
      "outputs": [
        {
          "internalType": "uint256",
          "name": "",
          "type": "uint256"
        }
      ],
      "stateMutability": "view",
      "type": "function"
    },
    {
      "inputs": [
        {
          "internalType": "uint256",
          "name": "itemId",
          "type": "uint256"
        }
      ],
      "name": "getBid",
      "outputs": [
        {
          "internalType": "uint256",
          "name": "",
          "type": "uint256"
        }
      ],
      "stateMutability": "view",
      "type": "function"
    },
    {
      "inputs": [
        {
          "internalType": "uint256",
          "name": "itemId",
          "type": "uint256"
        }
      ],
      "name": "getBidsHistory",
      "outputs": [
        {
          "components": [
            {
              "internalType": "address",
              "name": "bidder",
              "type": "address"
            },
            {
              "internalType": "uint256",
              "name": "amount",
              "type": "uint256"
            },
            {
              "internalType": "uint256",
              "name": "timestamp",
              "type": "uint256"
            }
          ],
          "internalType": "struct Auction.Bid[]",
          "name": "",
          "type": "tuple[]"
        }
      ],
      "stateMutability": "view",
      "type": "function"
    },
    {
      "inputs": [
        {
          "internalType": "uint256",
          "name": "itemId",
          "type": "uint256"
        }
      ],
      "name": "getHighestBid",
      "outputs": [
        {
          "internalType": "uint256",
          "name": "",
          "type": "uint256"
        }
      ],
      "stateMutability": "view",
      "type": "function"
    },
    {
      "inputs": [
        {
          "internalType": "uint256",
          "name": "itemId",
          "type": "uint256"
        }
      ],
      "name": "getHighestBidder",
      "outputs": [
        {
          "internalType": "address",
          "name": "",
          "type": "address"
        }
      ],
      "stateMutability": "view",
      "type": "function"
    },
    {
      "inputs": [
        {
          "internalType": "address",
          "name": "user",
          "type": "address"
        }
      ],
      "name": "getReceivedTokens",
      "outputs": [
        {
          "internalType": "uint256[]",
          "name": "",
          "type": "uint256[]"
        }
      ],
      "stateMutability": "view",
      "type": "function"
    },
    {
      "inputs": [
        {
          "internalType": "uint256",
          "name": "tokenId",
          "type": "uint256"
        }
      ],
      "name": "incrementBid",
      "outputs": [],
      "stateMutability": "payable",
      "type": "function"
    },
    {
      "inputs": [
        {
          "internalType": "uint256",
          "name": "tokenId",
          "type": "uint256"
        }
      ],
      "name": "initializeAuction",
      "outputs": [],
      "stateMutability": "nonpayable",
      "type": "function"
    },
    {
      "inputs": [
        {
          "internalType": "uint256",
          "name": "",
          "type": "uint256"
        },
        {
          "internalType": "uint256",
          "name": "",
          "type": "uint256"
        }
      ],
      "name": "itemBidders",
      "outputs": [
        {
          "internalType": "address",
          "name": "",
          "type": "address"
        }
      ],
      "stateMutability": "view",
      "type": "function"
    },
    {
      "inputs": [
        {
          "internalType": "address",
          "name": "operator",
          "type": "address"
        },
        {
          "internalType": "address",
          "name": "from",
          "type": "address"
        },
        {
          "internalType": "uint256",
          "name": "tokenId",
          "type": "uint256"
        },
        {
          "internalType": "bytes",
          "name": "data",
          "type": "bytes"
        }
      ],
      "name": "onERC721Received",
      "outputs": [
        {
          "internalType": "bytes4",
          "name": "",
          "type": "bytes4"
        }
      ],
      "stateMutability": "nonpayable",
      "type": "function"
    },
    {
      "inputs": [],
      "name": "owner",
      "outputs": [
        {
          "internalType": "address",
          "name": "",
          "type": "address"
        }
      ],
      "stateMutability": "view",
      "type": "function"
    },
    {
      "inputs": [
        {
          "internalType": "address",
          "name": "",
          "type": "address"
        },
        {
          "internalType": "uint256",
          "name": "",
          "type": "uint256"
        }
      ],
      "name": "receivedTokens",
      "outputs": [
        {
          "internalType": "uint256",
          "name": "",
          "type": "uint256"
        }
      ],
      "stateMutability": "view",
      "type": "function"
    },
    {
      "inputs": [],
      "name": "renounceOwnership",
      "outputs": [],
      "stateMutability": "nonpayable",
      "type": "function"
    },
    {
      "inputs": [
        {
          "internalType": "uint256",
          "name": "tokenId",
          "type": "uint256"
        },
        {
          "internalType": "uint256",
          "name": "_lowestPrice",
          "type": "uint256"
        },
        {
          "internalType": "uint256",
          "name": "_bidIncrement",
          "type": "uint256"
        },
        {
          "internalType": "uint256",
          "name": "_endTimestamp",
          "type": "uint256"
        }
      ],
      "name": "startAuction",
      "outputs": [
        {
          "internalType": "uint256",
          "name": "",
          "type": "uint256"
        }
      ],
      "stateMutability": "nonpayable",
      "type": "function"
    },
    {
      "inputs": [
        {
          "internalType": "address",
          "name": "newOwner",
          "type": "address"
        }
      ],
      "name": "transferOwnership",
      "outputs": [],
      "stateMutability": "nonpayable",
      "type": "function"
    },
    {
      "inputs": [
        {
          "internalType": "address",
          "name": "",
          "type": "address"
        },
        {
          "internalType": "uint256",
          "name": "",
          "type": "uint256"
        }
      ],
      "name": "userItemBids",
      "outputs": [
        {
          "internalType": "uint256",
          "name": "",
          "type": "uint256"
        }
      ],
      "stateMutability": "view",
      "type": "function"
    },
    {
      "inputs": [
        {
          "internalType": "uint256",
          "name": "tokenId",
          "type": "uint256"
        }
      ],
      "name": "withdraw",
      "outputs": [],
      "stateMutability": "nonpayable",
      "type": "function"
    }
  ],
  "bytecode": "0x6080604052600060015534801561001557600080fd5b50604051613d34380380613d3483398181016040528101906100379190610228565b33600073ffffffffffffffffffffffffffffffffffffffff168173ffffffffffffffffffffffffffffffffffffffff16036100aa5760006040517f1e4fbdf70000000000000000000000000000000000000000000000000000000081526004016100a19190610264565b60405180910390fd5b6100b98161010160201b60201c565b5080600760006101000a81548173ffffffffffffffffffffffffffffffffffffffff021916908373ffffffffffffffffffffffffffffffffffffffff1602179055505061027f565b60008060009054906101000a900473ffffffffffffffffffffffffffffffffffffffff169050816000806101000a81548173ffffffffffffffffffffffffffffffffffffffff021916908373ffffffffffffffffffffffffffffffffffffffff1602179055508173ffffffffffffffffffffffffffffffffffffffff168173ffffffffffffffffffffffffffffffffffffffff167f8be0079c531659141344cd1fd0a4f28419497f9722a3daafe3b4186f6b6457e060405160405180910390a35050565b600080fd5b600073ffffffffffffffffffffffffffffffffffffffff82169050919050565b60006101f5826101ca565b9050919050565b610205816101ea565b811461021057600080fd5b50565b600081519050610222816101fc565b92915050565b60006020828403121561023e5761023d6101c5565b5b600061024c84828501610213565b91505092915050565b61025e816101ea565b82525050565b60006020820190506102796000830184610255565b92915050565b613aa68061028e6000396000f3fe6080604052600436106101355760003560e01c80638da5cb5b116100ab578063c750cb791161006f578063c750cb7914610479578063d6e8a0b0146104b6578063de995234146104d2578063f2fde38b1461050f578063f8fe54fa14610538578063fd70e3771461057557610135565b80638da5cb5b1461036e5780638f28864414610399578063961fe5ef146103d6578063a8475e9d14610413578063b9a2de3a1461045057610135565b80633c889e6f116100fd5780633c889e6f146102335780634545382f146102705780634d43a534146102ad578063571a26a0146102d6578063715018a61461031a5780638d2c44881461033157610135565b806312065fe01461013a578063150b7a02146101655780631b0a32a5146101a25780632e1a7d4d146101df57806335af939b14610208575b600080fd5b34801561014657600080fd5b5061014f6105b4565b60405161015c919061284c565b60405180910390f35b34801561017157600080fd5b5061018c60048036038101906101879190612960565b6105bc565b6040516101999190612a23565b60405180910390f35b3480156101ae57600080fd5b506101c960048036038101906101c49190612a3e565b610637565b6040516101d69190612b29565b60405180910390f35b3480156101eb57600080fd5b5061020660048036038101906102019190612b4b565b6106ce565b005b34801561021457600080fd5b5061021d6109a4565b60405161022a9190612bd7565b60405180910390f35b34801561023f57600080fd5b5061025a60048036038101906102559190612b4b565b6109ca565b604051610267919061284c565b60405180910390f35b34801561027c57600080fd5b5061029760048036038101906102929190612bf2565b610a24565b6040516102a4919061284c565b60405180910390f35b3480156102b957600080fd5b506102d460048036038101906102cf9190612b4b565b610a49565b005b3480156102e257600080fd5b506102fd60048036038101906102f89190612b4b565b610df6565b604051610311989796959493929190612cb8565b60405180910390f35b34801561032657600080fd5b5061032f610e6b565b005b34801561033d57600080fd5b5061035860048036038101906103539190612d36565b610e7f565b604051610365919061284c565b60405180910390f35b34801561037a57600080fd5b5061038361137e565b6040516103909190612d9d565b60405180910390f35b3480156103a557600080fd5b506103c060048036038101906103bb9190612b4b565b6113a7565b6040516103cd919061284c565b60405180910390f35b3480156103e257600080fd5b506103fd60048036038101906103f89190612b4b565b6113c7565b60405161040a9190612eb8565b60405180910390f35b34801561041f57600080fd5b5061043a60048036038101906104359190612b4b565b6114a3565b6040516104479190612f8b565b60405180910390f35b34801561045c57600080fd5b5061047760048036038101906104729190612b4b565b61159e565b005b34801561048557600080fd5b506104a0600480360381019061049b9190612b4b565b61170e565b6040516104ad9190612d9d565b60405180910390f35b6104d060048036038101906104cb9190612b4b565b61174e565b005b3480156104de57600080fd5b506104f960048036038101906104f49190612fa7565b611c84565b6040516105069190612d9d565b60405180910390f35b34801561051b57600080fd5b5061053660048036038101906105319190612a3e565b611cd2565b005b34801561054457600080fd5b5061055f600480360381019061055a9190612bf2565b611d58565b60405161056c919061284c565b60405180910390f35b34801561058157600080fd5b5061059c60048036038101906105979190612fa7565b611d89565b6040516105ab93929190612fe7565b60405180910390f35b600047905090565b6000600660008673ffffffffffffffffffffffffffffffffffffffff1673ffffffffffffffffffffffffffffffffffffffff16815260200190815260200160002084908060018154018082558091505060019003906000526020600020016000909190919091505563150b7a0260e01b905095945050505050565b6060600660008373ffffffffffffffffffffffffffffffffffffffff1673ffffffffffffffffffffffffffffffffffffffff1681526020019081526020016000208054806020026020016040519081016040528092919081815260200182805480156106c257602002820191906000526020600020905b8154815260200190600101908083116106ae575b50505050509050919050565b806106d881611df0565b600260038111156106ec576106eb612c32565b5b6002600084815260200190815260200160002060050160009054906101000a900460ff16600381111561072257610721612c32565b5b14610762576040517f08c379a00000000000000000000000000000000000000000000000000000000081526004016107599061307b565b60405180910390fd5b6002600083815260200190815260200160002060070160009054906101000a900473ffffffffffffffffffffffffffffffffffffffff1673ffffffffffffffffffffffffffffffffffffffff163373ffffffffffffffffffffffffffffffffffffffff1603610806576040517f08c379a00000000000000000000000000000000000000000000000000000000081526004016107fd906130e7565b60405180910390fd5b6000600460003373ffffffffffffffffffffffffffffffffffffffff1673ffffffffffffffffffffffffffffffffffffffff16815260200190815260200160002060008481526020019081526020016000205411610899576040517f08c379a000000000000000000000000000000000000000000000000000000000815260040161089090613153565b60405180910390fd5b6000600460003373ffffffffffffffffffffffffffffffffffffffff1673ffffffffffffffffffffffffffffffffffffffff16815260200190815260200160002060008481526020019081526020016000205490506000600460003373ffffffffffffffffffffffffffffffffffffffff1673ffffffffffffffffffffffffffffffffffffffff16815260200190815260200160002060008581526020019081526020016000208190555061094e8333611e7d565b5061095883612028565b3373ffffffffffffffffffffffffffffffffffffffff166108fc829081150290604051600060405180830381858888f1935050505015801561099e573d6000803e3d6000fd5b50505050565b600760009054906101000a900473ffffffffffffffffffffffffffffffffffffffff1681565b6000600460003373ffffffffffffffffffffffffffffffffffffffff1673ffffffffffffffffffffffffffffffffffffffff1681526020019081526020016000206000838152602001908152602001600020549050919050565b6004602052816000526040600020602052806000526040600020600091509150505481565b610a51612155565b80610a5b81611df0565b60026003811115610a6f57610a6e612c32565b5b6002600084815260200190815260200160002060050160009054906101000a900460ff166003811115610aa557610aa4612c32565b5b14610ae5576040517f08c379a0000000000000000000000000000000000000000000000000000000008152600401610adc9061307b565b60405180910390fd5b60006002600084815260200190815260200160002060050160006101000a81548160ff02191690836003811115610b1f57610b1e612c32565b5b02179055506000600260008481526020019081526020016000206006018190555060006002600084815260200190815260200160002060070160006101000a81548173ffffffffffffffffffffffffffffffffffffffff021916908373ffffffffffffffffffffffffffffffffffffffff16021790555060008060056000858152602001908152602001600020805480602002602001604051908101604052809291908181526020018280548015610c2c57602002820191906000526020600020905b8160009054906101000a900473ffffffffffffffffffffffffffffffffffffffff1673ffffffffffffffffffffffffffffffffffffffff1681526020019060010190808311610be2575b5050505050905060005b8151811015610d26576000828281518110610c5457610c53613173565b5b602002602001015190506000600460008373ffffffffffffffffffffffffffffffffffffffff1673ffffffffffffffffffffffffffffffffffffffff16815260200190815260200160002060008881526020019081526020016000205490506000600460008473ffffffffffffffffffffffffffffffffffffffff1673ffffffffffffffffffffffffffffffffffffffff1681526020019081526020016000206000898152602001908152602001600020819055508085610d1591906131d1565b945050508080600101915050610c36565b50600067ffffffffffffffff811115610d4257610d41613205565b5b604051908082528060200260200182016040528015610d705781602001602082028036833780820191505090505b50600560008681526020019081526020016000209080519060200190610d9792919061271f565b506000821115610df057610da961137e565b73ffffffffffffffffffffffffffffffffffffffff166108fc839081150290604051600060405180830381858888f19350505050158015610dee573d6000803e3d6000fd5b505b50505050565b60026020528060005260406000206000915090508060000154908060010154908060020154908060030154908060040154908060050160009054906101000a900460ff16908060060154908060070160009054906101000a900473ffffffffffffffffffffffffffffffffffffffff16905088565b610e73612155565b610e7d60006121dc565b565b60003073ffffffffffffffffffffffffffffffffffffffff16600760009054906101000a900473ffffffffffffffffffffffffffffffffffffffff1673ffffffffffffffffffffffffffffffffffffffff16636352211e876040518263ffffffff1660e01b8152600401610ef3919061284c565b602060405180830381865afa158015610f10573d6000803e3d6000fd5b505050506040513d601f19601f82011682018060405250810190610f349190613249565b73ffffffffffffffffffffffffffffffffffffffff1614610f8a576040517f08c379a0000000000000000000000000000000000000000000000000000000008152600401610f81906132e8565b60405180910390fd5b60005b600660003373ffffffffffffffffffffffffffffffffffffffff1673ffffffffffffffffffffffffffffffffffffffff168152602001908152602001600020805490508110156110d75785600660003373ffffffffffffffffffffffffffffffffffffffff1673ffffffffffffffffffffffffffffffffffffffff168152602001908152602001600020828154811061102957611028613173565b5b906000526020600020015403156110d7576001600660003373ffffffffffffffffffffffffffffffffffffffff1673ffffffffffffffffffffffffffffffffffffffff168152602001908152602001600020805490506110899190613308565b81036110ca576040517f08c379a00000000000000000000000000000000000000000000000000000000081526004016110c1906133ae565b60405180910390fd5b8080600101915050610f8d565b50600060038111156110ec576110eb612c32565b5b6002600087815260200190815260200160002060050160009054906101000a900460ff16600381111561112257611121612c32565b5b14611162576040517f08c379a00000000000000000000000000000000000000000000000000000000081526004016111599061341a565b60405180910390fd5b600084116111a5576040517f08c379a000000000000000000000000000000000000000000000000000000000815260040161119c906134ac565b60405180910390fd5b600083116111e8576040517f08c379a00000000000000000000000000000000000000000000000000000000081526004016111df9061353e565b60405180910390fd5b42821161122a576040517f08c379a0000000000000000000000000000000000000000000000000000000008152600401611221906135d0565b60405180910390fd5b6001600081548092919061123d906135f0565b919050555060405180610100016040528060015481526020018581526020018481526020014281526020018381526020016001600381111561128257611281612c32565b5b8152602001600081526020013373ffffffffffffffffffffffffffffffffffffffff1681525060026000878152602001908152602001600020600082015181600001556020820151816001015560408201518160020155606082015181600301556080820151816004015560a08201518160050160006101000a81548160ff0219169083600381111561131857611317612c32565b5b021790555060c0820151816006015560e08201518160070160006101000a81548173ffffffffffffffffffffffffffffffffffffffff021916908373ffffffffffffffffffffffffffffffffffffffff1602179055509050506001549050949350505050565b60008060009054906101000a900473ffffffffffffffffffffffffffffffffffffffff16905090565b600060026000838152602001908152602001600020600601549050919050565b606060036000838152602001908152602001600020805480602002602001604051908101604052809291908181526020016000905b8282101561149857838290600052602060002090600302016040518060600160405290816000820160009054906101000a900473ffffffffffffffffffffffffffffffffffffffff1673ffffffffffffffffffffffffffffffffffffffff1673ffffffffffffffffffffffffffffffffffffffff16815260200160018201548152602001600282015481525050815260200190600101906113fc565b505050509050919050565b6114ab6127a9565b600260008381526020019081526020016000206040518061010001604052908160008201548152602001600182015481526020016002820154815260200160038201548152602001600482015481526020016005820160009054906101000a900460ff16600381111561152157611520612c32565b5b600381111561153357611532612c32565b5b8152602001600682015481526020016007820160009054906101000a900473ffffffffffffffffffffffffffffffffffffffff1673ffffffffffffffffffffffffffffffffffffffff1673ffffffffffffffffffffffffffffffffffffffff16815250509050919050565b806115a881611df0565b600260038111156115bc576115bb612c32565b5b6002600083815260200190815260200160002060050160009054906101000a900460ff1660038111156115f2576115f1612c32565b5b03611632576040517f08c379a000000000000000000000000000000000000000000000000000000000815260040161162990613684565b60405180910390fd5b6001600381111561164657611645612c32565b5b6002600083815260200190815260200160002060050160009054906101000a900460ff16600381111561167c5761167b612c32565b5b146116bc576040517f08c379a00000000000000000000000000000000000000000000000000000000081526004016116b3906136f0565b60405180910390fd5b60006116c7836122a0565b905080611709576040517f08c379a00000000000000000000000000000000000000000000000000000000081526004016117009061375c565b60405180910390fd5b505050565b60006002600083815260200190815260200160002060070160009054906101000a900473ffffffffffffffffffffffffffffffffffffffff169050919050565b8061175881611df0565b6002600381111561176c5761176b612c32565b5b6002600083815260200190815260200160002060050160009054906101000a900460ff1660038111156117a2576117a1612c32565b5b036117e2576040517f08c379a00000000000000000000000000000000000000000000000000000000081526004016117d990613684565b60405180910390fd5b600160038111156117f6576117f5612c32565b5b6002600083815260200190815260200160002060050160009054906101000a900460ff16600381111561182c5761182b612c32565b5b1461186c576040517f08c379a0000000000000000000000000000000000000000000000000000000008152600401611863906136f0565b60405180910390fd5b6000611877836122a0565b905080156118ba576040517f08c379a00000000000000000000000000000000000000000000000000000000081526004016118b190613684565b60405180910390fd5b6002600084815260200190815260200160002060020154341015611913576040517f08c379a000000000000000000000000000000000000000000000000000000000815260040161190a906137ee565b60405180910390fd5b6000600460003373ffffffffffffffffffffffffffffffffffffffff1673ffffffffffffffffffffffffffffffffffffffff16815260200190815260200160002060008581526020019081526020016000205490506000806119758334612697565b91509150816119b9576040517f08c379a00000000000000000000000000000000000000000000000000000000081526004016119b09061385a565b60405180910390fd5b6002600087815260200190815260200160002060010154811015611a12576040517f08c379a0000000000000000000000000000000000000000000000000000000008152600401611a09906138ec565b60405180910390fd5b60026000878152602001908152602001600020600601548111611a6a576040517f08c379a0000000000000000000000000000000000000000000000000000000008152600401611a619061397e565b60405180910390fd5b60008303611ae75760056000878152602001908152602001600020339080600181540180825580915050600190039060005260206000200160009091909190916101000a81548173ffffffffffffffffffffffffffffffffffffffff021916908373ffffffffffffffffffffffffffffffffffffffff1602179055505b806002600088815260200190815260200160002060060181905550336002600088815260200190815260200160002060070160006101000a81548173ffffffffffffffffffffffffffffffffffffffff021916908373ffffffffffffffffffffffffffffffffffffffff16021790555080600460003373ffffffffffffffffffffffffffffffffffffffff1673ffffffffffffffffffffffffffffffffffffffff168152602001908152602001600020600088815260200190815260200160002081905550600060405180606001604052803373ffffffffffffffffffffffffffffffffffffffff1681526020018381526020014281525090506003600088815260200190815260200160002081908060018154018082558091505060019003906000526020600020906003020160009091909190915060008201518160000160006101000a81548173ffffffffffffffffffffffffffffffffffffffff021916908373ffffffffffffffffffffffffffffffffffffffff1602179055506020820151816001015560408201518160020155505050505050505050565b60056020528160005260406000208181548110611ca057600080fd5b906000526020600020016000915091509054906101000a900473ffffffffffffffffffffffffffffffffffffffff1681565b611cda612155565b600073ffffffffffffffffffffffffffffffffffffffff168173ffffffffffffffffffffffffffffffffffffffff1603611d4c5760006040517f1e4fbdf7000000000000000000000000000000000000000000000000000000008152600401611d439190612d9d565b60405180910390fd5b611d55816121dc565b50565b60066020528160005260406000208181548110611d7457600080fd5b90600052602060002001600091509150505481565b60036020528160005260406000208181548110611da557600080fd5b9060005260206000209060030201600091509150508060000160009054906101000a900473ffffffffffffffffffffffffffffffffffffffff16908060010154908060020154905083565b60006003811115611e0457611e03612c32565b5b6002600083815260200190815260200160002060050160009054906101000a900460ff166003811115611e3a57611e39612c32565b5b03611e7a576040517f08c379a0000000000000000000000000000000000000000000000000000000008152600401611e71906139ea565b60405180910390fd5b50565b60008060056000858152602001908152602001600020905060005b818054905081101561201b578373ffffffffffffffffffffffffffffffffffffffff16828281548110611ece57611ecd613173565b5b9060005260206000200160009054906101000a900473ffffffffffffffffffffffffffffffffffffffff1673ffffffffffffffffffffffffffffffffffffffff160361200e578160018380549050611f269190613308565b81548110611f3757611f36613173565b5b9060005260206000200160009054906101000a900473ffffffffffffffffffffffffffffffffffffffff16828281548110611f7557611f74613173565b5b9060005260206000200160006101000a81548173ffffffffffffffffffffffffffffffffffffffff021916908373ffffffffffffffffffffffffffffffffffffffff16021790555081805480611fce57611fcd613a0a565b5b6001900381819060005260206000200160006101000a81549073ffffffffffffffffffffffffffffffffffffffff02191690559055600192505050612022565b8080600101915050611e98565b5060009150505b92915050565b8061203281611df0565b6002600381111561204657612045612c32565b5b6002600084815260200190815260200160002060050160009054906101000a900460ff16600381111561207c5761207b612c32565b5b036121515760006005600084815260200190815260200160002080549050116121515760006002600084815260200190815260200160002060050160006101000a81548160ff021916908360038111156120d9576120d8612c32565b5b02179055506000600260008481526020019081526020016000206006018190555060006002600084815260200190815260200160002060070160006101000a81548173ffffffffffffffffffffffffffffffffffffffff021916908373ffffffffffffffffffffffffffffffffffffffff1602179055505b5050565b61215d6126c6565b73ffffffffffffffffffffffffffffffffffffffff1661217b61137e565b73ffffffffffffffffffffffffffffffffffffffff16146121da5761219e6126c6565b6040517f118cdaa70000000000000000000000000000000000000000000000000000000081526004016121d19190612d9d565b60405180910390fd5b565b60008060009054906101000a900473ffffffffffffffffffffffffffffffffffffffff169050816000806101000a81548173ffffffffffffffffffffffffffffffffffffffff021916908373ffffffffffffffffffffffffffffffffffffffff1602179055508173ffffffffffffffffffffffffffffffffffffffff168173ffffffffffffffffffffffffffffffffffffffff167f8be0079c531659141344cd1fd0a4f28419497f9722a3daafe3b4186f6b6457e060405160405180910390a35050565b600060026000838152602001908152602001600020600401544210156122c95760009050612692565b600280600084815260200190815260200160002060050160006101000a81548160ff0219169083600381111561230257612301612c32565b5b021790555061232660026000848152602001908152602001600020600601546126ce565b60006002600084815260200190815260200160002060070160009054906101000a900473ffffffffffffffffffffffffffffffffffffffff1690506000600460008373ffffffffffffffffffffffffffffffffffffffff1673ffffffffffffffffffffffffffffffffffffffff1681526020019081526020016000206000858152602001908152602001600020819055506123c18382611e7d565b50600760009054906101000a900473ffffffffffffffffffffffffffffffffffffffff1673ffffffffffffffffffffffffffffffffffffffff166342842e0e3083866040518463ffffffff1660e01b815260040161242193929190613a39565b600060405180830381600087803b15801561243b57600080fd5b505af115801561244f573d6000803e3d6000fd5b5050505060005b600660008373ffffffffffffffffffffffffffffffffffffffff1673ffffffffffffffffffffffffffffffffffffffff168152602001908152602001600020805490508110156126825783600660008473ffffffffffffffffffffffffffffffffffffffff1673ffffffffffffffffffffffffffffffffffffffff16815260200190815260200160002082815481106124f2576124f1613173565b5b90600052602060002001540361267557600660008373ffffffffffffffffffffffffffffffffffffffff1673ffffffffffffffffffffffffffffffffffffffff1681526020019081526020016000206001600660008573ffffffffffffffffffffffffffffffffffffffff1673ffffffffffffffffffffffffffffffffffffffff168152602001908152602001600020805490506125909190613308565b815481106125a1576125a0613173565b5b9060005260206000200154600660008473ffffffffffffffffffffffffffffffffffffffff1673ffffffffffffffffffffffffffffffffffffffff16815260200190815260200160002082815481106125fd576125fc613173565b5b9060005260206000200181905550600660008373ffffffffffffffffffffffffffffffffffffffff1673ffffffffffffffffffffffffffffffffffffffff16815260200190815260200160002080548061265a57612659613a0a565b5b60019003818190600052602060002001600090559055612682565b8080600101915050612456565b5061268c83612028565b60019150505b919050565b60008060008385019050848110156126b65760008092509250506126bf565b60018192509250505b9250929050565b600033905090565b6126d661137e565b73ffffffffffffffffffffffffffffffffffffffff166108fc829081150290604051600060405180830381858888f1935050505015801561271b573d6000803e3d6000fd5b5050565b828054828255906000526020600020908101928215612798579160200282015b828111156127975782518260006101000a81548173ffffffffffffffffffffffffffffffffffffffff021916908373ffffffffffffffffffffffffffffffffffffffff1602179055509160200191906001019061273f565b5b5090506127a59190612816565b5090565b6040518061010001604052806000815260200160008152602001600081526020016000815260200160008152602001600060038111156127ec576127eb612c32565b5b815260200160008152602001600073ffffffffffffffffffffffffffffffffffffffff1681525090565b5b8082111561282f576000816000905550600101612817565b5090565b6000819050919050565b61284681612833565b82525050565b6000602082019050612861600083018461283d565b92915050565b600080fd5b600080fd5b600073ffffffffffffffffffffffffffffffffffffffff82169050919050565b600061289c82612871565b9050919050565b6128ac81612891565b81146128b757600080fd5b50565b6000813590506128c9816128a3565b92915050565b6128d881612833565b81146128e357600080fd5b50565b6000813590506128f5816128cf565b92915050565b600080fd5b600080fd5b600080fd5b60008083601f8401126129205761291f6128fb565b5b8235905067ffffffffffffffff81111561293d5761293c612900565b5b60208301915083600182028301111561295957612958612905565b5b9250929050565b60008060008060006080868803121561297c5761297b612867565b5b600061298a888289016128ba565b955050602061299b888289016128ba565b94505060406129ac888289016128e6565b935050606086013567ffffffffffffffff8111156129cd576129cc61286c565b5b6129d98882890161290a565b92509250509295509295909350565b60007fffffffff0000000000000000000000000000000000000000000000000000000082169050919050565b612a1d816129e8565b82525050565b6000602082019050612a386000830184612a14565b92915050565b600060208284031215612a5457612a53612867565b5b6000612a62848285016128ba565b91505092915050565b600081519050919050565b600082825260208201905092915050565b6000819050602082019050919050565b612aa081612833565b82525050565b6000612ab28383612a97565b60208301905092915050565b6000602082019050919050565b6000612ad682612a6b565b612ae08185612a76565b9350612aeb83612a87565b8060005b83811015612b1c578151612b038882612aa6565b9750612b0e83612abe565b925050600181019050612aef565b5085935050505092915050565b60006020820190508181036000830152612b438184612acb565b905092915050565b600060208284031215612b6157612b60612867565b5b6000612b6f848285016128e6565b91505092915050565b6000819050919050565b6000612b9d612b98612b9384612871565b612b78565b612871565b9050919050565b6000612baf82612b82565b9050919050565b6000612bc182612ba4565b9050919050565b612bd181612bb6565b82525050565b6000602082019050612bec6000830184612bc8565b92915050565b60008060408385031215612c0957612c08612867565b5b6000612c17858286016128ba565b9250506020612c28858286016128e6565b9150509250929050565b7f4e487b7100000000000000000000000000000000000000000000000000000000600052602160045260246000fd5b60048110612c7257612c71612c32565b5b50565b6000819050612c8382612c61565b919050565b6000612c9382612c75565b9050919050565b612ca381612c88565b82525050565b612cb281612891565b82525050565b600061010082019050612cce600083018b61283d565b612cdb602083018a61283d565b612ce8604083018961283d565b612cf5606083018861283d565b612d02608083018761283d565b612d0f60a0830186612c9a565b612d1c60c083018561283d565b612d2960e0830184612ca9565b9998505050505050505050565b60008060008060808587031215612d5057612d4f612867565b5b6000612d5e878288016128e6565b9450506020612d6f878288016128e6565b9350506040612d80878288016128e6565b9250506060612d91878288016128e6565b91505092959194509250565b6000602082019050612db26000830184612ca9565b92915050565b600081519050919050565b600082825260208201905092915050565b6000819050602082019050919050565b612ded81612891565b82525050565b606082016000820151612e096000850182612de4565b506020820151612e1c6020850182612a97565b506040820151612e2f6040850182612a97565b50505050565b6000612e418383612df3565b60608301905092915050565b6000602082019050919050565b6000612e6582612db8565b612e6f8185612dc3565b9350612e7a83612dd4565b8060005b83811015612eab578151612e928882612e35565b9750612e9d83612e4d565b925050600181019050612e7e565b5085935050505092915050565b60006020820190508181036000830152612ed28184612e5a565b905092915050565b612ee381612c88565b82525050565b61010082016000820151612f006000850182612a97565b506020820151612f136020850182612a97565b506040820151612f266040850182612a97565b506060820151612f396060850182612a97565b506080820151612f4c6080850182612a97565b5060a0820151612f5f60a0850182612eda565b5060c0820151612f7260c0850182612a97565b5060e0820151612f8560e0850182612de4565b50505050565b600061010082019050612fa16000830184612ee9565b92915050565b60008060408385031215612fbe57612fbd612867565b5b6000612fcc858286016128e6565b9250506020612fdd858286016128e6565b9150509250929050565b6000606082019050612ffc6000830186612ca9565b613009602083018561283d565b613016604083018461283d565b949350505050565b600082825260208201905092915050565b7f41756374696f6e206973206e6f7420656e646564000000000000000000000000600082015250565b600061306560148361301e565b91506130708261302f565b602082019050919050565b6000602082019050818103600083015261309481613058565b9050919050565b7f596f752061726520746865206869676865737420626964646572000000000000600082015250565b60006130d1601a8361301e565b91506130dc8261309b565b602082019050919050565b60006020820190508181036000830152613100816130c4565b9050919050565b7f596f7520646f6e27742068617665206120626964000000000000000000000000600082015250565b600061313d60148361301e565b915061314882613107565b602082019050919050565b6000602082019050818103600083015261316c81613130565b9050919050565b7f4e487b7100000000000000000000000000000000000000000000000000000000600052603260045260246000fd5b7f4e487b7100000000000000000000000000000000000000000000000000000000600052601160045260246000fd5b60006131dc82612833565b91506131e783612833565b92508282019050808211156131ff576131fe6131a2565b5b92915050565b7f4e487b7100000000000000000000000000000000000000000000000000000000600052604160045260246000fd5b600081519050613243816128a3565b92915050565b60006020828403121561325f5761325e612867565b5b600061326d84828501613234565b91505092915050565b7f546f6b656e206973206e6f74207472616e7366657272656420746f207468652060008201527f636f6e7472616374000000000000000000000000000000000000000000000000602082015250565b60006132d260288361301e565b91506132dd82613276565b604082019050919050565b60006020820190508181036000830152613301816132c5565b9050919050565b600061331382612833565b915061331e83612833565b9250828203905081811115613336576133356131a2565b5b92915050565b7f596f7520617265206e6f7420746865206f776e6572206f662074686520746f6b60008201527f656e000000000000000000000000000000000000000000000000000000000000602082015250565b600061339860228361301e565b91506133a38261333c565b604082019050919050565b600060208201905081810360008301526133c78161338b565b9050919050565b7f41756374696f6e206973206578697374696e6700000000000000000000000000600082015250565b600061340460138361301e565b915061340f826133ce565b602082019050919050565b60006020820190508181036000830152613433816133f7565b9050919050565b7f4c6f77657374207072696365206d75737420626520677265617465722074686160008201527f6e20300000000000000000000000000000000000000000000000000000000000602082015250565b600061349660238361301e565b91506134a18261343a565b604082019050919050565b600060208201905081810360008301526134c581613489565b9050919050565b7f42696420696e6372656d656e74206d757374206265206772656174657220746860008201527f616e203000000000000000000000000000000000000000000000000000000000602082015250565b600061352860248361301e565b9150613533826134cc565b604082019050919050565b600060208201905081810360008301526135578161351b565b9050919050565b7f456e642074696d657374616d70206d757374206265206772656174657220746860008201527f616e2063757272656e742074696d657374616d70000000000000000000000000602082015250565b60006135ba60348361301e565b91506135c58261355e565b604082019050919050565b600060208201905081810360008301526135e9816135ad565b9050919050565b60006135fb82612833565b91507fffffffffffffffffffffffffffffffffffffffffffffffffffffffffffffffff820361362d5761362c6131a2565b5b600182019050919050565b7f41756374696f6e20697320656e64656400000000000000000000000000000000600082015250565b600061366e60108361301e565b915061367982613638565b602082019050919050565b6000602082019050818103600083015261369d81613661565b9050919050565b7f41756374696f6e206973206e6f742072756e6e696e6700000000000000000000600082015250565b60006136da60168361301e565b91506136e5826136a4565b602082019050919050565b60006020820190508181036000830152613709816136cd565b9050919050565b7f41756374696f6e2063616e277420626520656e64656400000000000000000000600082015250565b600061374660168361301e565b915061375182613710565b602082019050919050565b6000602082019050818103600083015261377581613739565b9050919050565b7f426964206973206c6f776572207468616e207468652062696420696e6372656d60008201527f656e740000000000000000000000000000000000000000000000000000000000602082015250565b60006137d860238361301e565b91506137e38261377c565b604082019050919050565b60006020820190508181036000830152613807816137cb565b9050919050565b7f42696420697320746f6f20686967680000000000000000000000000000000000600082015250565b6000613844600f8361301e565b915061384f8261380e565b602082019050919050565b6000602082019050818103600083015261387381613837565b9050919050565b7f426964206973206c6f776572207468616e20746865206c6f776573742070726960008201527f6365000000000000000000000000000000000000000000000000000000000000602082015250565b60006138d660228361301e565b91506138e18261387a565b604082019050919050565b60006020820190508181036000830152613905816138c9565b9050919050565b7f426964206973206c6f776572207468616e20746865206869676865737420626960008201527f6400000000000000000000000000000000000000000000000000000000000000602082015250565b600061396860218361301e565b91506139738261390c565b604082019050919050565b600060208201905081810360008301526139978161395b565b9050919050565b7f41756374696f6e206973206e6f74206578697374696e67000000000000000000600082015250565b60006139d460178361301e565b91506139df8261399e565b602082019050919050565b60006020820190508181036000830152613a03816139c7565b9050919050565b7f4e487b7100000000000000000000000000000000000000000000000000000000600052603160045260246000fd5b6000606082019050613a4e6000830186612ca9565b613a5b6020830185612ca9565b613a68604083018461283d565b94935050505056fea26469706673582212202e808aa6e2cd6c7ce89f75d457fe0bc55059088882cb63d31e1a0e2373eede7864736f6c634300081c0033",
  "linkReferences": {},
  "deployedLinkReferences": {}
}